:100000008BC3A5C3A4C3A3C3A2C3A1C3A0C39FC3DF
:100010009EC39DC39CC39BC39AC399C398C300400E
:100020007A10F35A00A0724E18090010A5D4E80007
:1000300000E87648170000E40B54020000CA9A3B1F
:10004000000000E1F50500008096980000004042A5
:100050000F000000A0860100000010270000000033
:10006000E803000000006400000000000A00000037
:1000700000000100000000002C76D888DC674F08E3
:1000800023DFC1DFAE59E1B1B796E5E3E453C63AE9
:10009000E651997696E8E6C28426EB898C9B62ED60
:1000A000407C6FFCEFBC9C9F40F2BAA56FA5F4901A
:1000B000055A2AF75C936B6CF9676DC11BFCE0E491
:1000C0000D47FEF520E6B500D0ED902E03009435E7
:1000D00077050080841E080000204E0A000000C83A
:1000E0000C333333330F986E12831141EF8D21148B
:1000F000893BE65516CFFEE6DB18D1844B381BF75B
:100100007C1D901DA4BBE424203284725E228100F9
:10011000C9F124ECA1E53D2700000000000000002B
:100120000000000000000000000000005F00000070
:1001300000000000000000000000000007000000B8
:100140000700000000000000000014007F00140001
:100150007F00140000000000000024002A007F003F
:100160002A00120000000000000023001300080015
:1001700064006200000000000000360049005500E5
:1001800022005000000000000000000005000300F5
:10019000000000000000000000001C0022004100E0
:1001A00000000000000000000000410022001C00D0
:1001B0000000000000000000000008002A001C00F1
:1001C0002A000800000000000000080008003E00AF
:1001D00008000800000000000000A000600000000F
:1001E00000000000000000000000080008000800F7
:1001F000080008000000000000006000600000002F
:1002000000000000000000000000200010000800B6
:10021000040002000000000000003E005100490000
:1002200045003E00000000000000000042007F008A
:100230004000000000000000000062005100490082
:100240004900460000000000000022004100490073
:1002500049003600000000000000180014001200E1
:100260007F0010000000000000002700450045004E
:10027000450039000000000000003C004A00490031
:10028000490030000000000000000100710009007A
:10029000050003000000000000003600490049008E
:1002A0004900360000000000000006004900490037
:1002B00029001E000000000000000000360036008B
:1002C000000000000000000000000000AC006C0016
:1002D00000000000000000000000080014002200E0
:1002E0004100000000000000000014001400140091
:1002F000140014000000000000004100220014005F
:100300000800000000000000000002000100510091
:1003100009000600000000000000320049007900DA
:1003200041003E000000000000007E0009000900BE
:1003300009007E000000000000007F004900490025
:10034000490036000000000000003E00410041006E
:10035000410022000000000000007F004100410039
:1003600022001C000000000000007F00490049003E
:10037000490041000000000000007F000900090062
:10038000090001000000000000003E0041004100A3
:10039000510072000000000000007F00080008000B
:1003A00008007F0000000000000041007F004100C5
:1003B000000000000000000000002000400041009C
:1003C0003F0001000000000000007F000800140052
:1003D000220041000000000000007F0040004000BB
:1003E000400040000000000000007F0002000C0000
:1003F00002007F000000000000007F0004000800F1
:1004000010007F000000000000003E00410041009D
:1004100041003E000000000000007F0009000900CC
:10042000090006000000000000003E0041005100ED
:1004300021005E000000000000007F00090019009C
:100440002900460000000000000026004900490085
:1004500049003200000000000000010001007F00A0
:10046000010001000000000000003F0040004000CB
:1004700040003F000000000000001F00200040007E
:1004800020001F000000000000003F004000380076
:1004900040003F000000000000006300140008005E
:1004A0001400630000000000000003000400780056
:1004B000040003000000000000006100510049003A
:1004C000450043000000000000007F0041004100A3
:1004D000000000000000000000000200040008000E
:1004E00010002000000000000000410041007F00DB
:1004F00000000000000000000000040002000100F5
:100500000200040000000000000080008000800065
:1005100080008000000000000000010002000400D4
:100520000000000000000000000020005400540003
:10053000540078000000000000007F0048004400E4
:10054000440038000000000000003800440044006F
:1005500028000000000000000000380044004400B3
:1005600048007F00000000000000380054005400E4
:100570005400180000000000000008007E00090080
:10058000020000000000000000001800A400A40009
:10059000A4007C000000000000007F0008000400B0
:1005A0000400780000000000000000007D00000052
:1005B00000000000000000000000800084007D00BA
:1005C000000000000000000000007F001000280074
:1005D0004400000000000000000041007F004000D7
:1005E000000000000000000000007C000400180073
:1005F000040078000000000000007C0008000400F7
:100600007C000000000000000000380044004400AE
:1006100038000000000000000000FC00240024005E
:100620001800000000000000000018002400240052
:10063000FC00000000000000000000007C0008003A
:1006400004000000000000000000480054005400B6
:100650002400000000000000000004007F004400AF
:10066000000000000000000000003C0040004000CE
:100670007C0000000000000000001C002000400082
:1006800020001C000000000000003C004000300082
:1006900040003C0000000000000044002800100062
:1006A000280044000000000000001C00A000A00082
:1006B0007C000000000000000000440064005400C2
:1006C0004C0044000000000000000800360041001B
:1006D0000000000000000000000000007F0000009B
:1006E000000000000000000000004100360008008B
:1006F00000000000000000000000020001000100F6
:1007000002000100000000000000020005000500DA
:10071000020000000000000011241FBECFE5D2E05F
:10072000DEBFCDBF10E0A0E6B0E0EAE5F8E102C030
:1007300005900D92A238B107D9F720E0A2E8B0E009
:1007400001C01D92A83CB207E1F70ED284C858CC74
:100750004F925F926F927F928F929F92AF92BF92D1
:10076000CF92DF92EF92FF920F931F93CF93DF937D
:1007700088E490E0C5D38AE090E0C8D3E9D368E08C
:1007800070E088E490E0E7D300D4909396008093E3
:100790009500FBD39093A8008093A700F6D3909385
:1007A000AA008093A900F1D39093B0008093AF008A
:1007B000ECD39093AC008093AB00E7D3909394007C
:1007C00080939300E2D390938A0080938900DDD3D5
:1007D0005C019093AE008093AD00E0909500F090A6
:1007E0009600EE0CFF1CEE0CFF1CEE0CFF1CF092B2
:1007F0009600E0929500C091A700D091A800D595F1
:10080000C795D595C795D595C795D595C795D595D0
:10081000C795D093A800C093A7006091A9007091DC
:10082000AA00660F771F660F771F660F771F7093FA
:10083000AA006093A9002091AF003091B000C901D7
:100840009595879595958795959587959595879590
:10085000959587959093B0008093AF00C12CD12CD3
:10086000D090AB00D092AC00C092AB0000E010E0A2
:100870001091890010938A0000938900680F791FF6
:10088000072E000C880B990B21D426EF38E24CE997
:1008900050E4A8D46093850070938600809387000D
:1008A00090938800409060005090610060906200DA
:1008B0007090630060919300709194006C0D7D1DA9
:1008C000072E000C880B990B01D42DEC3CEC4CEC62
:1008D0005AE388D4A301920163D360939F0070937D
:1008E000A0008093A1009093A200B501600F711F3A
:1008F000072E000C880B990BE9D34B015C012DEC02
:100900003CEC4CEC5BE36ED4A301920149D36093C1
:10091000B1007093B2008093B3009093B40027E1CC
:1009200037EB41ED56E3C501B4015CD4A30192015C
:1009300037D360938B0070938C0080938D009093DD
:100940008E00CE0DDF1DBE01DD0F880B990BBED3CF
:1009500020E030E040E05EE345D460938F00709388
:100960009000809391009093920081EE94E0019723
:10097000F1F700C0000060918500709186008091C1
:1009800087009091880007E910E023E048E0DED47A
:1009900028E030E040E050E060E070E0C801A2D123
:1009A00022E030E040E050E067E070E088E690E070
:1009B00099D160919F007091A0008091A1009091C9
:1009C000A20023E048E0C2D428E030E041E050E05B
:1009D00060E070E0C80186D122E030E041E050E004
:1009E00067E070E08BE690E07DD16091B10070919E
:1009F000B2008091B3009091B40023E048E0A6D407
:100A000028E030E042E050E060E070E0C8016AD1E8
:100A100023E030E042E050E067E070E08EE690E0F6
:100A200061D1209164003091650040916600509141
:100A3000670060918B0070918C0080918D00909187
:100A40008E00AED220E030E048EC52E4CBD360938D
:100A5000A3007093A4008093A5009093A60023E0C8
:100A600045E074D425E030E043E050E060E070E021
:100A7000C80138D122E030E043E050E067E070E0A8
:100A800082E790E02FD1DF91CF911F910F91FF90DE
:100A9000EF90DF90CF90BF90AF909F908F907F901E
:100AA0006F905F904F9008950F931F93CF93DF93B4
:100AB0008C01EB0188E490E023D2C80127D2CE015B
:100AC00025D246D2DF91CF911F910F910895CF93F8
:100AD000C82F88E490E014D28C2F90E017D238D23F
:100AE00061E070E088E490E036D24FD29927CF9150
:100AF0000895CF92DF92EF92FF92209160003091A3
:100B000061004091620050916300609164007091B7
:100B10006500809166009091670064D327E137EB10
:100B200041ED56E33DD2C9D3A3D26B017C016D2DBB
:100B300070E080E190E0B8DFB601772781E190E0D6
:100B4000B3DFFF90EF90DF90CF90089581E0BFDF9B
:100B500099270895BC0181E090E0A6DF0895BC01CB
:100B600081E690E0A1DF089570D020E140E060E0F0
:100B700084E790E0B7D02FE382E49FE021508040EB
:100B80009040E1F700C000004BD02FE38DE093E0F0
:100B9000215080409040E1F700C00000D7DFEC0119
:100BA00086FF04C0A6DFCE018F7BD4DF8AE090E011
:100BB000D6DFCEDD8FE39DE023E0815090402040E2
:100BC000E1F700C00000F5CFCF93C82F8CE398D198
:100BD00080E89CD18C2F9AD1BBD1CF910895CF932F
:100BE000C82F8CE38DD180E491D18C2F8FD1B0D1DF
:100BF000CF910895CF93DF93C82FD62F880F880FFA
:100C0000880F8870E1DF8C2F90E0969587958F7024
:100C1000805FDADF80EB8D0FD7DFDF91CF91089512
:100C2000CF93DF93D0E06D2F80E0E4DFC0E080E081
:100C3000D6DFCF5FC038D9F7DF5FD430A1F760E0EF
:100C400080E0D8DFDF91CF91089558D188EABCDFEA
:100C50008FE1BADF60E080E0CDDF8AEDB5DF82E0D2
:100C6000B3DF86EAB1DF80E2AFDF80E0ADDF8DE8A1
:100C7000ABDF84E1A9DF8FEAA7DF83EC99E001977E
:100C8000F1F700C00000CCDF08950F931F93CF93BE
:100C9000DF93082F862F662314F0642FABDF80EEDE
:100CA000800F803608F00AE210E0E801C295D29584
:100CB000D07FDC27C07FDC27C85ED040029512952C
:100CC000107F1027007F1027085D1040FE018491DF
:100CD00086DF2296C017D107C9F7DF91CF911F9108
:100CE0000F910895DF92EF92FF920F931F93CF938E
:100CF000DF937C01D62F142FD22E66231CF0642F95
:100D00008D2F78DFC0E012C001E00D0FCF5F412FC3
:100D10006D2FBBDFC03111F41F5F07C0CF3111F45D
:100D20001F5F03C0CE3209F41F5FD02FF701EC0F15
:100D3000F11D8081882311F0CD1530F3DF91CF9123
:100D40001F910F91FF90EF90DF900895C09AC29A83
:100D5000BA9AB89A8FEF8FB98AE28DB980EF8EB9BF
:100D600008958091B50008958EB98BE200C000C04F
:100D700000008DB9B29BFECF00C000C08DB9769B3C
:100D8000F5CF00C000C000008FB19FEF9FB9B89AA7
:100D90000895C29AC29BFECF00C000C00000C09858
:100DA00000C000C0C298C09A779905C083E08093C4
:100DB000B50080E0089581E008958F929F92AF92F0
:100DC000BF92CF92DF92EF92FF920F931F93CF9338
:100DD000DF937C01B62E8091B50081608093B500D1
:100DE000F701808180FD05C08091B500826080930D
:100DF000B500CFDF882309F45BC0CB2D8701DFEF7F
:100E0000AA24A3948E2C9F2C8091B5008370B9F1F5
:100E1000C2986801FFEFCF1ADF0AF80180818FB90D
:100E200080EFA2DFB8988EEF9FDF80FF0FC0909118
:100E3000B500892F817090FF05C081E08093B500D7
:100E400080E036C092E09093B50032C08091B5004A
:100E50008570843069F4F701808181608083A0927D
:100E6000B50097DF81111DC09AE09093B50020C0B6
:100E70008091B5008E7F8093B500860115C0B8982B
:100E80006801FFEFCF1ADF0A80EF6EDFF801808381
:100E9000C13011F4DFB901C01FB88EEF65DF8601E4
:100EA00003C0CB2D082D192DC15009F0ADCF81E025
:100EB000DF91CF911F910F91FF90EF90DF90CF9036
:100EC000BF90AF909F908F9008951092B50075DFFE
:100ED0000895C098C29AB29BFECF00C000C0C09ACD
:100EE00000C000C000009EB1892F807295FD04C033
:100EF00094E09093B500089581E0089527DF089568
:100F000010928400880F8093B6000895E0918400C9
:100F1000E13138F4EF5FE0938400F0E0EA54FF4FF2
:100F200080830895CF93C82F609184006F5F86EB14
:100F300090E0CBDF10928400882339F0CC2331F08D
:100F4000C8DF811103C00DDF01C00BDFCF91089511
:100F500081E0E8DF08951092830060938200880F9B
:100F600081608093B6006F5F86EB90E0AEDF8823F0
:100F700031F0AFDF811106C0F4DE90E00895F1DEBC
:100F800090E0089580E090E00895E0918300EF5FA5
:100F9000E0938300F0E0EA54FF4F808190E00895F1
:100FA0000CD0E6C0DED040F0D5D030F021F45F3F69
:100FB00019F0C7C0511110C1CAC0EBD098F39923E2
:100FC000C9F35523B1F3951B550BBB27AA2762170D
:100FD0007307840738F09F5F5F4F220F331F441F52
:100FE000AA1FA9F333D00E2E3AF0E0E830D091508A
:100FF0005040E695001CCAF729D0FE2F27D0660F77
:10100000771F881FBB1F261737074807AB07B0E8B5
:1010100009F0BB0B802DBF01FF2793585F4F2AF0CB
:101020009E3F510568F08DC0D7C05F3FECF3983EFE
:10103000DCF3869577956795B795F7959F5FC9F728
:10104000880F911D9695879597F90895E1E0660FB1
:10105000771F881FBB1F621773078407BA0720F02A
:10106000621B730B840BBA0BEE1F88F7E095089593
:1010700098D088F09F5790F0B92F9927B751A0F0DA
:10108000D1F0660F771F881F991F1AF0BA95C9F71C
:1010900012C0B13081F09FD0B1E008959CC0672F9D
:1010A000782F8827B85F39F0B93FCCF386957795CC
:1010B0006795B395D9F73EF49095809570956195B5
:1010C0007F4F8F4F9F4F0895E89409C097FB3EF4E0
:1010D00090958095709561957F4F8F4F9F4F992385
:1010E000A9F0F92F96E9BB279395F6958795779503
:1010F0006795B795F111F8CFFAF4BB0F11F460FFC3
:101100001BC06F5F7F4F8F4F9F4F16C0882311F01A
:1011100096E911C0772321F09EE8872F762F05C02E
:10112000662371F096E8862F70E060E02AF09A95C9
:10113000660F771F881FDAF7880F9695879597F9BE
:10114000089597F99F6780E870E060E008959FEF49
:1011500080EC089500240A9416161706180609064E
:10116000089500240A94121613061406050608951D
:10117000092E0394000C11F4882352F0BB0F40F4A5
:10118000BF2B11F460FF04C06F5F7F4F8F4F9F4FE5
:10119000089557FD9058440F551F59F05F3F71F067
:1011A0004795880F97FB991F61F09F3F79F08795CE
:1011B0000895121613061406551FF2CF4695F1DF57
:1011C00008C0161617061806991FF1CF86957105E7
:1011D000610508940895E894BB2766277727CB011B
:1011E00097F908950AD0C4CFB5DF28F0BADF18F018
:1011F000952309F0A6CFABCFEFCFCBDFA8F3992390
:10120000D9F35523C9F3950F50E0551FAA27EE27B0
:10121000FF27BB2700240894679520F4E20FF31FF3
:10122000B41F0A1E220F331F441FAA1F6695A9F779
:10123000779530F4F30FB41F0A1E121E08F463955D
:10124000330F441FAA1F221F769599F7879520F424
:10125000B40F0A1E121E631F440FAA1F221F331F42
:101260008695A9F7862F712D602D11249F57504028
:101270008AF0E1F088234AF0EE0FFF1FBB1F661FC4
:10128000771F881F91505040A9F79E3F510570F07D
:1012900058CFA2CF5F3FECF3983EDCF3869577956D
:1012A0006795B795F795E7959F5FC1F7FE2B880F78
:1012B000911D9695879597F9089573DFE0F09E3715
:1012C000D8F09639B8F49E3848F4672F782F8827DD
:1012D000985FF9CF86957795679593959539D0F373
:1012E000B62FB1706B0F711D811D20F48795779516
:1012F0006795939502C01CC06FCF882371F4772344
:1013000021F09850872B762F07C0662311F4992778
:101310000DC09051862B70E060E02AF09A95660F20
:10132000771F881FDAF7880F9695879597F90895A4
:101330009F3F31F0915020F4879577956795B79549
:10134000880F911D9695879597F90895EF920F93C1
:101350001F93CF93DF93E80147FD02C034E001C043
:1013600034E1042E000C550B57FF03C051954195F5
:101370005109E32E022F242FAE0107D0CE01DF91B9
:10138000CF911F910F91EF900895A9E0B0E0EAECA2
:10139000F9E030C26A01122FB02E2BE3201720F0A3
:1013A000FF24F394F00E02C02CE3F22E0F2D27E061
:1013B000AE014F5F5F4F40D1BC014981842F8970DE
:1013C000813031F0E1FC06C0E0FE06C090E205C0CD
:1013D0009DE203C09BE201C090E05E2D507143FF8F
:1013E0003CC0911102C083E001C084E0811718F471
:1013F000212F281B01C020E051110BC0F601822FC4
:1014000030E2882319F031938150FBCFC20ED11CFA
:1014100020E0992329F0D6019C93F60131966F01C3
:10142000C6010396E2FE0AC03EE4D6013C9341E4C5
:1014300011964C93119712963C9306C03EE6F60126
:10144000308341E641833283FC01322F40E2332373
:1014500009F442C041933150FACF42FF44C0911188
:1014600002C083E001C084E0811718F4212F281BFB
:1014700001C020E051110BC0F601822F30E2882319
:1014800019F031938150FBCFC20ED11C20E099237B
:1014900029F0D6019C93F60131966F01C60103969F
:1014A000E2FE0BC039E4D6013C933EE411963C9336
:1014B000119736E412963C9307C039E6F601308363
:1014C0003EE6318336E63283FC01322F40E233239D
:1014D00019F041933150FBCFFC01E20FF11D108256
:1014E0008EEF9FEFA6C021E030E0911102C020E016
:1014F00030E0161617061CF4FB01319602C0E1E03D
:10150000F0E02E0F3F1FBB2021F0EB2DF0E03196D5
:1015100002C0E0E0F0E02E0F3F1FE12FF0E02E17B9
:101520003F071CF4121B212F01C020E08E2D887173
:1015300059F4F601822F30E2882319F0319381505B
:10154000FBCFC20ED11C20E0992329F0D6019C9339
:10155000F60131966F0151110BC0F601822F90E315
:10156000882319F091938150FBCFC20ED11C20E04B
:101570000F2D060F9A81342F307144FF03C0913331
:1015800009F40150101624F4093018F008E001C0E5
:1015900001E0AB0177FF02C040E050E0FB01E41B3B
:1015A000F50BA1E0B0E0AC0FBD1FEA0FFB1F8EE210
:1015B000A82E4B01801A91080B2D10E01195019572
:1015C00011094F3FBFEF5B0721F4D601AC92119692
:1015D0006D01641775072CF08416950614F481814B
:1015E00001C080E3415051093196D60111967D0129
:1015F0004017510724F0D6018C936701E2CF64179E
:10160000750739F4963320F4953319F4311101C07C
:1016100081E3F6018083F701822F90E2882319F09D
:1016200091938150FBCFF701E20FF11D108280E012
:1016300090E02996ECE0FAC0283008F027E0332744
:10164000DA01990F311D87FD9160009661057105E2
:1016500039F432602E5F3D9330E32A95E1F7089527
:101660009F3F30F080387105610509F03C5F3C5FB9
:101670003D93913008F08068911DDF93CF931F93C5
:101680000F93FF92EF92192F987F9695E92F9695D9
:101690009695E90FFF27E858FF4F99273327EE2447
:1016A000FF24A701E70105900894079428F4360F5A
:1016B000E71EF81E491F511D660F771F881F991FCF
:1016C0000694A1F70590079428F4E70EF81E491F29
:1016D000561FC11D770F881F991F661F0694A1F71B
:1016E0000590079428F4F80E491F561FC71FD11DF7
:1016F000880F991F661F771F0694A1F7059007941E
:1017000020F4490F561FC71FD81F990F661F771F58
:10171000881F0694A9F784911095177041F0D6950B
:10172000C79557954795F794E7941A95C1F7EEE159
:10173000F0E068941590159135916591959105901B
:101740007FE27395E118F10A430B560BC90BD009E0
:10175000C0F7E10CF11E431F561FC91FD01D7EF4B8
:10176000703311F48A95E6CFE894015030F0080FF9
:101770000AF40027021708F4202F2395022F7A334A
:1017800028F079E37D932A95E9F710C07D932A9597
:1017900089F6069497956795379517951794E118EC
:1017A000F10A430B560BC90BD00998F023957E9193
:1017B00073957A3308F070E37C932013B8F77E9129
:1017C00070617D9330F0839571E37D9370E32A958A
:1017D000E1F71124EF90FF900F911F91CF91DF91CE
:1017E000992787FD909508952F923F924F925F928F
:1017F0006F927F928F929F92AF92BF92CF92DF9221
:10180000EF92FF920F931F93CF93DF93CDB7DEB785
:10181000CA1BDB0B0FB6F894DEBF0FBECDBF099419
:101820002A88398848885F846E847D848C849B8470
:10183000AA84B984C884DF80EE80FD800C811B817E
:10184000AA81B981CE0FD11D0FB6F894DEBF0FBEAD
:0A185000CDBFED010895F894FFCF1D
:10185A000AD7233CCDCC4C406D56006D41006D41FA
:10186A006800250048656C6C6F204F6C697665725C
:02187A0021004B
:00000001FF
